{
  "contractName": "Adoptions",
  "abi": [
    {
      "anonymous": false,
      "inputs": [
        {
          "indexed": false,
          "internalType": "uint256",
          "name": "petId",
          "type": "uint256"
        },
        {
          "indexed": false,
          "internalType": "address",
          "name": "adopter",
          "type": "address"
        }
      ],
      "name": "Adopted",
      "type": "event"
    },
    {
      "constant": false,
      "inputs": [
        {
          "internalType": "uint256",
          "name": "petId",
          "type": "uint256"
        }
      ],
      "name": "adoptPet",
      "outputs": [
        {
          "internalType": "uint256",
          "name": "",
          "type": "uint256"
        }
      ],
      "payable": false,
      "stateMutability": "nonpayable",
      "type": "function"
    },
    {
      "constant": true,
      "inputs": [
        {
          "internalType": "uint256",
          "name": "petId",
          "type": "uint256"
        }
      ],
      "name": "getAdopter",
      "outputs": [
        {
          "internalType": "address",
          "name": "",
          "type": "address"
        }
      ],
      "payable": false,
      "stateMutability": "view",
      "type": "function"
    }
  ],
  "bytecode": "0x608060405234801561001057600080fd5b5061026e806100206000396000f3fe608060405234801561001057600080fd5b50600436106100365760003560e01c806319b815771461003b578063a73382971461007d575b600080fd5b6100676004803603602081101561005157600080fd5b81019080803590602001909291905050506100eb565b6040518082815260200191505060405180910390f35b6100a96004803603602081101561009357600080fd5b81019080803590602001909291905050506101fd565b604051808273ffffffffffffffffffffffffffffffffffffffff1673ffffffffffffffffffffffffffffffffffffffff16815260200191505060405180910390f35b60008082101580156100fe5750600f8211155b61010757600080fd5b3360008084815260200190815260200160002060006101000a81548173ffffffffffffffffffffffffffffffffffffffff021916908373ffffffffffffffffffffffffffffffffffffffff1602179055507f01c07ea0ae04d5e8aae2bb4f2d6bf449288c76006383b9ffaed4d85ca8d9a9518260008085815260200190815260200160002060009054906101000a900473ffffffffffffffffffffffffffffffffffffffff16604051808381526020018273ffffffffffffffffffffffffffffffffffffffff1673ffffffffffffffffffffffffffffffffffffffff1681526020019250505060405180910390a1819050919050565b600080600083815260200190815260200160002060009054906101000a900473ffffffffffffffffffffffffffffffffffffffff16905091905056fea265627a7a72315820322ae7decb28e1158b5f2b34845dafbc6287ef89f8871e26afe29ffb6a1b265f64736f6c63430005100032",
  "source": "pragma solidity >=0.5.0;\n\ncontract Adoptions{\n  mapping(uint256=>address) adopters;\n  event Adopted(uint256 petId,address adopter);\n  \n  function adoptPet(uint256 petId) public returns(uint256){\n    require(petId>=0 && petId<=15);\n    adopters[petId]=msg.sender;\n    emit Adopted(petId,adopters[petId]);\n    return petId;\n  }\n\n  function getAdopter(uint256 petId) public view returns(address){\n    return adopters[petId];\n  }\n}\n",
  "sourcePath": "/home/cipher/Desktop/pet_shop/contracts/Adoptions.sol",
  "compiler": {
    "name": "solc",
    "version": "0.5.16+commit.9c3226ce.Emscripten.clang"
  },
  "schemaVersion": "3.2.0",
  "updatedAt": "2020-07-10T09:36:07.553Z",
  "devdoc": {
    "methods": {}
  },
  "userdoc": {
    "methods": {}
  }
}